{
  "_format": "hh-sol-artifact-1",
  "contractName": "OracleConsumer",
  "sourceName": "contracts/OracleConsumer.sol",
  "abi": [
    {
      "inputs": [],
      "stateMutability": "nonpayable",
      "type": "constructor"
    },
    {
      "anonymous": false,
      "inputs": [
        {
          "indexed": false,
          "internalType": "uint256",
          "name": "newPrice",
          "type": "uint256"
        }
      ],
      "name": "PriceUpdated",
      "type": "event"
    },
    {
      "inputs": [],
      "name": "carbonPrice",
      "outputs": [
        {
          "internalType": "uint256",
          "name": "",
          "type": "uint256"
        }
      ],
      "stateMutability": "view",
      "type": "function"
    },
    {
      "inputs": [],
      "name": "getCarbonPrice",
      "outputs": [
        {
          "internalType": "uint256",
          "name": "",
          "type": "uint256"
        }
      ],
      "stateMutability": "view",
      "type": "function"
    },
    {
      "inputs": [
        {
          "internalType": "uint256",
          "name": "_newPrice",
          "type": "uint256"
        }
      ],
      "name": "updatePrice",
      "outputs": [],
      "stateMutability": "nonpayable",
      "type": "function"
    }
  ],
  "bytecode": "0x608060405234801561001057600080fd5b5060196000819055506101b6806100286000396000f3fe608060405234801561001057600080fd5b50600436106100415760003560e01c806389851e98146100465780638d6cc56d14610064578063c968856614610080575b600080fd5b61004e61009e565b60405161005b9190610107565b60405180910390f35b61007e60048036038101906100799190610153565b6100a7565b005b6100886100e8565b6040516100959190610107565b60405180910390f35b60008054905090565b806000819055507f66cbca4f3c64fecf1dcb9ce094abcf7f68c3450a1d4e3a8e917dd621edb4ebe0816040516100dd9190610107565b60405180910390a150565b60005481565b6000819050919050565b610101816100ee565b82525050565b600060208201905061011c60008301846100f8565b92915050565b600080fd5b610130816100ee565b811461013b57600080fd5b50565b60008135905061014d81610127565b92915050565b60006020828403121561016957610168610122565b5b60006101778482850161013e565b9150509291505056fea2646970667358221220850d833090fb2c18602d1175d540b40368e7a6db1da1051709a5d95e25b1671364736f6c63430008140033",
  "linkReferences": {},
  "deployedLinkReferences": {}
}