{
  "_format": "hh-sol-artifact-1",
  "contractName": "CarbonRegistry",
  "sourceName": "contracts/CarbonRegistry.sol",
  "abi": [
    {
      "inputs": [
        {
          "internalType": "address",
          "name": "_tokenAddress",
          "type": "address"
        }
      ],
      "stateMutability": "nonpayable",
      "type": "constructor"
    },
    {
      "inputs": [
        {
          "internalType": "address",
          "name": "owner",
          "type": "address"
        }
      ],
      "name": "OwnableInvalidOwner",
      "type": "error"
    },
    {
      "inputs": [
        {
          "internalType": "address",
          "name": "account",
          "type": "address"
        }
      ],
      "name": "OwnableUnauthorizedAccount",
      "type": "error"
    },
    {
      "anonymous": false,
      "inputs": [
        {
          "indexed": true,
          "internalType": "address",
          "name": "previousOwner",
          "type": "address"
        },
        {
          "indexed": true,
          "internalType": "address",
          "name": "newOwner",
          "type": "address"
        }
      ],
      "name": "OwnershipTransferred",
      "type": "event"
    },
    {
      "anonymous": false,
      "inputs": [
        {
          "indexed": false,
          "internalType": "uint256",
          "name": "projectId",
          "type": "uint256"
        },
        {
          "indexed": false,
          "internalType": "string",
          "name": "name",
          "type": "string"
        },
        {
          "indexed": false,
          "internalType": "uint256",
          "name": "vintage",
          "type": "uint256"
        },
        {
          "indexed": false,
          "internalType": "uint256",
          "name": "co2e",
          "type": "uint256"
        }
      ],
      "name": "ProjectRegistered",
      "type": "event"
    },
    {
      "inputs": [
        {
          "internalType": "uint256",
          "name": "_projectId",
          "type": "uint256"
        }
      ],
      "name": "getProject",
      "outputs": [
        {
          "internalType": "string",
          "name": "",
          "type": "string"
        },
        {
          "internalType": "uint256",
          "name": "",
          "type": "uint256"
        },
        {
          "internalType": "uint256",
          "name": "",
          "type": "uint256"
        },
        {
          "internalType": "bool",
          "name": "",
          "type": "bool"
        }
      ],
      "stateMutability": "view",
      "type": "function"
    },
    {
      "inputs": [],
      "name": "owner",
      "outputs": [
        {
          "internalType": "address",
          "name": "",
          "type": "address"
        }
      ],
      "stateMutability": "view",
      "type": "function"
    },
    {
      "inputs": [],
      "name": "projectCount",
      "outputs": [
        {
          "internalType": "uint256",
          "name": "",
          "type": "uint256"
        }
      ],
      "stateMutability": "view",
      "type": "function"
    },
    {
      "inputs": [
        {
          "internalType": "uint256",
          "name": "",
          "type": "uint256"
        }
      ],
      "name": "projects",
      "outputs": [
        {
          "internalType": "string",
          "name": "projectId",
          "type": "string"
        },
        {
          "internalType": "uint256",
          "name": "vintage",
          "type": "uint256"
        },
        {
          "internalType": "uint256",
          "name": "co2eAmount",
          "type": "uint256"
        },
        {
          "internalType": "bool",
          "name": "validated",
          "type": "bool"
        }
      ],
      "stateMutability": "view",
      "type": "function"
    },
    {
      "inputs": [
        {
          "internalType": "string",
          "name": "_projectId",
          "type": "string"
        },
        {
          "internalType": "uint256",
          "name": "_vintage",
          "type": "uint256"
        },
        {
          "internalType": "uint256",
          "name": "_co2eAmount",
          "type": "uint256"
        }
      ],
      "name": "registerProject",
      "outputs": [],
      "stateMutability": "nonpayable",
      "type": "function"
    },
    {
      "inputs": [],
      "name": "renounceOwnership",
      "outputs": [],
      "stateMutability": "nonpayable",
      "type": "function"
    },
    {
      "inputs": [],
      "name": "token",
      "outputs": [
        {
          "internalType": "contract CarbonCreditToken",
          "name": "",
          "type": "address"
        }
      ],
      "stateMutability": "view",
      "type": "function"
    },
    {
      "inputs": [
        {
          "internalType": "address",
          "name": "newOwner",
          "type": "address"
        }
      ],
      "name": "transferOwnership",
      "outputs": [],
      "stateMutability": "nonpayable",
      "type": "function"
    }
  ],
  "bytecode": "0x60806040523480156200001157600080fd5b506040516200123438038062001234833981810160405281019062000037919062000235565b33600073ffffffffffffffffffffffffffffffffffffffff168173ffffffffffffffffffffffffffffffffffffffff1603620000ad5760006040517f1e4fbdf7000000000000000000000000000000000000000000000000000000008152600401620000a4919062000278565b60405180910390fd5b620000be816200010760201b60201c565b5080600160006101000a81548173ffffffffffffffffffffffffffffffffffffffff021916908373ffffffffffffffffffffffffffffffffffffffff1602179055505062000295565b60008060009054906101000a900473ffffffffffffffffffffffffffffffffffffffff169050816000806101000a81548173ffffffffffffffffffffffffffffffffffffffff021916908373ffffffffffffffffffffffffffffffffffffffff1602179055508173ffffffffffffffffffffffffffffffffffffffff168173ffffffffffffffffffffffffffffffffffffffff167f8be0079c531659141344cd1fd0a4f28419497f9722a3daafe3b4186f6b6457e060405160405180910390a35050565b600080fd5b600073ffffffffffffffffffffffffffffffffffffffff82169050919050565b6000620001fd82620001d0565b9050919050565b6200020f81620001f0565b81146200021b57600080fd5b50565b6000815190506200022f8162000204565b92915050565b6000602082840312156200024e576200024d620001cb565b5b60006200025e848285016200021e565b91505092915050565b6200027281620001f0565b82525050565b60006020820190506200028f600083018462000267565b92915050565b610f8f80620002a56000396000f3fe608060405234801561001057600080fd5b50600436106100885760003560e01c8063e636eb551161005b578063e636eb5514610106578063f0f3f2c814610122578063f2fde38b14610155578063fc0c546a1461017157610088565b8063107046bd1461008d57806336fbad26146100c0578063715018a6146100de5780638da5cb5b146100e8575b600080fd5b6100a760048036038101906100a2919061076a565b61018f565b6040516100b79493929190610851565b60405180910390f35b6100c8610254565b6040516100d5919061089d565b60405180910390f35b6100e661025a565b005b6100f061026e565b6040516100fd91906108f9565b60405180910390f35b610120600480360381019061011b9190610a49565b610297565b005b61013c6004803603810190610137919061076a565b610414565b60405161014c9493929190610851565b60405180910390f35b61016f600480360381019061016a9190610ae4565b610521565b005b6101796105a7565b6040516101869190610b70565b60405180910390f35b60026020528060005260406000206000915090508060000180546101b290610bba565b80601f01602080910402602001604051908101604052809291908181526020018280546101de90610bba565b801561022b5780601f106102005761010080835404028352916020019161022b565b820191906000526020600020905b81548152906001019060200180831161020e57829003601f168201915b5050505050908060010154908060020154908060030160009054906101000a900460ff16905084565b60035481565b6102626105cd565b61026c6000610654565b565b60008060009054906101000a900473ffffffffffffffffffffffffffffffffffffffff16905090565b61029f6105cd565b600360008154809291906102b290610c1a565b919050555060405180608001604052808481526020018381526020018281526020016001151581525060026000600354815260200190815260200160002060008201518160000190816103059190610e04565b50602082015181600101556040820151816002015560608201518160030160006101000a81548160ff0219169083151502179055509050507f50c6a8b423458d44f896828d57af33000ead07320bc572c2b3d856e7a954df4b6003548484846040516103749493929190610ed6565b60405180910390a1600160009054906101000a900473ffffffffffffffffffffffffffffffffffffffff1673ffffffffffffffffffffffffffffffffffffffff1663156e29f633836003546040518463ffffffff1660e01b81526004016103dd93929190610f22565b600060405180830381600087803b1580156103f757600080fd5b505af115801561040b573d6000803e3d6000fd5b50505050505050565b60606000806000806002600087815260200190815260200160002060405180608001604052908160008201805461044a90610bba565b80601f016020809104026020016040519081016040528092919081815260200182805461047690610bba565b80156104c35780601f10610498576101008083540402835291602001916104c3565b820191906000526020600020905b8154815290600101906020018083116104a657829003601f168201915b5050505050815260200160018201548152602001600282015481526020016003820160009054906101000a900460ff161515151581525050905080600001518160200151826040015183606001519450945094509450509193509193565b6105296105cd565b600073ffffffffffffffffffffffffffffffffffffffff168173ffffffffffffffffffffffffffffffffffffffff160361059b5760006040517f1e4fbdf700000000000000000000000000000000000000000000000000000000815260040161059291906108f9565b60405180910390fd5b6105a481610654565b50565b600160009054906101000a900473ffffffffffffffffffffffffffffffffffffffff1681565b6105d5610718565b73ffffffffffffffffffffffffffffffffffffffff166105f361026e565b73ffffffffffffffffffffffffffffffffffffffff161461065257610616610718565b6040517f118cdaa700000000000000000000000000000000000000000000000000000000815260040161064991906108f9565b60405180910390fd5b565b60008060009054906101000a900473ffffffffffffffffffffffffffffffffffffffff169050816000806101000a81548173ffffffffffffffffffffffffffffffffffffffff021916908373ffffffffffffffffffffffffffffffffffffffff1602179055508173ffffffffffffffffffffffffffffffffffffffff168173ffffffffffffffffffffffffffffffffffffffff167f8be0079c531659141344cd1fd0a4f28419497f9722a3daafe3b4186f6b6457e060405160405180910390a35050565b600033905090565b6000604051905090565b600080fd5b600080fd5b6000819050919050565b61074781610734565b811461075257600080fd5b50565b6000813590506107648161073e565b92915050565b6000602082840312156107805761077f61072a565b5b600061078e84828501610755565b91505092915050565b600081519050919050565b600082825260208201905092915050565b60005b838110156107d15780820151818401526020810190506107b6565b60008484015250505050565b6000601f19601f8301169050919050565b60006107f982610797565b61080381856107a2565b93506108138185602086016107b3565b61081c816107dd565b840191505092915050565b61083081610734565b82525050565b60008115159050919050565b61084b81610836565b82525050565b6000608082019050818103600083015261086b81876107ee565b905061087a6020830186610827565b6108876040830185610827565b6108946060830184610842565b95945050505050565b60006020820190506108b26000830184610827565b92915050565b600073ffffffffffffffffffffffffffffffffffffffff82169050919050565b60006108e3826108b8565b9050919050565b6108f3816108d8565b82525050565b600060208201905061090e60008301846108ea565b92915050565b600080fd5b600080fd5b7f4e487b7100000000000000000000000000000000000000000000000000000000600052604160045260246000fd5b610956826107dd565b810181811067ffffffffffffffff821117156109755761097461091e565b5b80604052505050565b6000610988610720565b9050610994828261094d565b919050565b600067ffffffffffffffff8211156109b4576109b361091e565b5b6109bd826107dd565b9050602081019050919050565b82818337600083830152505050565b60006109ec6109e784610999565b61097e565b905082815260208101848484011115610a0857610a07610919565b5b610a138482856109ca565b509392505050565b600082601f830112610a3057610a2f610914565b5b8135610a408482602086016109d9565b91505092915050565b600080600060608486031215610a6257610a6161072a565b5b600084013567ffffffffffffffff811115610a8057610a7f61072f565b5b610a8c86828701610a1b565b9350506020610a9d86828701610755565b9250506040610aae86828701610755565b9150509250925092565b610ac1816108d8565b8114610acc57600080fd5b50565b600081359050610ade81610ab8565b92915050565b600060208284031215610afa57610af961072a565b5b6000610b0884828501610acf565b91505092915050565b6000819050919050565b6000610b36610b31610b2c846108b8565b610b11565b6108b8565b9050919050565b6000610b4882610b1b565b9050919050565b6000610b5a82610b3d565b9050919050565b610b6a81610b4f565b82525050565b6000602082019050610b856000830184610b61565b92915050565b7f4e487b7100000000000000000000000000000000000000000000000000000000600052602260045260246000fd5b60006002820490506001821680610bd257607f821691505b602082108103610be557610be4610b8b565b5b50919050565b7f4e487b7100000000000000000000000000000000000000000000000000000000600052601160045260246000fd5b6000610c2582610734565b91507fffffffffffffffffffffffffffffffffffffffffffffffffffffffffffffffff8203610c5757610c56610beb565b5b600182019050919050565b60008190508160005260206000209050919050565b60006020601f8301049050919050565b600082821b905092915050565b600060088302610cc47fffffffffffffffffffffffffffffffffffffffffffffffffffffffffffffffff82610c87565b610cce8683610c87565b95508019841693508086168417925050509392505050565b6000610d01610cfc610cf784610734565b610b11565b610734565b9050919050565b6000819050919050565b610d1b83610ce6565b610d2f610d2782610d08565b848454610c94565b825550505050565b600090565b610d44610d37565b610d4f818484610d12565b505050565b5b81811015610d7357610d68600082610d3c565b600181019050610d55565b5050565b601f821115610db857610d8981610c62565b610d9284610c77565b81016020851015610da1578190505b610db5610dad85610c77565b830182610d54565b50505b505050565b600082821c905092915050565b6000610ddb60001984600802610dbd565b1980831691505092915050565b6000610df48383610dca565b9150826002028217905092915050565b610e0d82610797565b67ffffffffffffffff811115610e2657610e2561091e565b5b610e308254610bba565b610e3b828285610d77565b600060209050601f831160018114610e6e5760008415610e5c578287015190505b610e668582610de8565b865550610ece565b601f198416610e7c86610c62565b60005b82811015610ea457848901518255600182019150602085019450602081019050610e7f565b86831015610ec15784890151610ebd601f891682610dca565b8355505b6001600288020188555050505b505050505050565b6000608082019050610eeb6000830187610827565b8181036020830152610efd81866107ee565b9050610f0c6040830185610827565b610f196060830184610827565b95945050505050565b6000606082019050610f3760008301866108ea565b610f446020830185610827565b610f516040830184610827565b94935050505056fea2646970667358221220fa377f7fe594253ec76d5d629de03c624e5e2031413e4ce70a50acc1f18942cc64736f6c63430008140033",
  "linkReferences": {},
  "deployedLinkReferences": {}
}